:1068000000180020D16C0000156D0000156D00000F
:106810000000000000000000000000000000000078
:10682000000000000000000000000000156D0000E6
:106830000000000000000000156D0000156D000054
:10684000156D0000156D0000156D0000156D000040
:10685000156D0000156D0000156D0000156D000030
:10686000156D0000156D0000156D0000156D000020
:10687000156D0000156D0000156D0000156D000010
:10688000156D0000156D0000156D0000156D000000
:10689000156D0000156D0000156D0000156D0000F0
:1068A000156D0000156D0000156D0000156D0000E0
:1068B000156D0000156D0000156D0000156D0000D0
:106C0000FFFFFFFFFFFFFFFFFFFFFFFFFEFFFFFF95
:106C100010B5064C2378002B07D1054B002B02D072
:106C2000044800E000BF0123237010BD780000205D
:106C300000000000C8E40000044B10B5002B03D096
:106C40000349044800E000BF10BDC046000000003A
:106C50007C000020C8E40000164B002B00D1144B30
:106C60009D46402292029A1A924600218B460F4678
:106C70001348144A121A06F038FD0F4B002B00D0AF
:106C800098470E4B002B00D09847002000210400AD
:106C90000D000D48002802D00C4800E000BF06F0AF
:106CA000F7FC2000290003F00DFC06F0DBFCC046D9
:106CB0000000080000180020000000000000000094
:106CC000780000209C06002000000000000000006A
:106CD00072B605F09FFE62B609490A4A0A4B9B1A32
:106CE00003DD043BC858D050FBDC0849084A521A5F
:106CF00003DD00208850043AFCDAFFF7ADFF000006
:106D0000F0E4000000000020740000207800002063
:106D10009C06002000480047156D00000022430833
:106D20008B4274D303098B425FD3030A8B4244D353
:106D3000030B8B4228D3030C8B420DD3FF22090295
:106D400012BA030C8B4202D31212090265D0030B54
:106D50008B4219D300E0090AC30B8B4201D3CB034A
:106D6000C01A5241830B8B4201D38B03C01A52418C
:106D7000430B8B4201D34B03C01A5241030B8B428E
:106D800001D30B03C01A5241C30A8B4201D3CB0279
:106D9000C01A5241830A8B4201D38B02C01A52415E
:106DA000430A8B4201D34B02C01A5241030A8B4261
:106DB00001D30B02C01A5241CDD2C3098B4201D379
:106DC000CB01C01A524183098B4201D38B01C01AF7
:106DD000524143098B4201D34B01C01A524103096E
:106DE0008B4201D30B01C01A5241C3088B4201D31D
:106DF000CB00C01A524183088B4201D38B00C01ACA
:106E0000524143088B4201D34B00C01A5241411AF0
:106E100000D20146524110467047FFE701B50020FD
:106E200000F0F0F802BDC0460029F7D076E77047C1
:106E300003460B437FD4002243088B4274D30309DB
:106E40008B425FD3030A8B4244D3030B8B4228D37C
:106E5000030C8B420DD3FF22090212BA030C8B42A2
:106E600002D31212090265D0030B8B4219D300E042
:106E7000090AC30B8B4201D3CB03C01A5241830BC7
:106E80008B4201D38B03C01A5241430B8B4201D377
:106E90004B03C01A5241030B8B4201D30B03C01AA0
:106EA0005241C30A8B4201D3CB02C01A5241830A1A
:106EB0008B4201D38B02C01A5241430A8B4201D349
:106EC0004B02C01A5241030A8B4201D30B02C01A73
:106ED0005241CDD2C3098B4201D3CB01C01A5241DA
:106EE00083098B4201D38B01C01A524143098B4263
:106EF00001D34B01C01A524103098B4201D30B014C
:106F0000C01A5241C3088B4201D3CB00C01A524170
:106F100083088B4201D38B00C01A524143088B4235
:106F200001D34B00C01A5241411A00D201465241CE
:106F3000104670475DE0CA0F00D04942031000D3ED
:106F40004042534000229C4603098B422DD3030A42
:106F50008B4212D3FC22890112BA030A8B420CD352
:106F6000890192118B4208D3890192118B4204D37B
:106F700089013AD0921100E08909C3098B4201D3FB
:106F8000CB01C01A524183098B4201D38B01C01A35
:106F9000524143098B4201D34B01C01A52410309AC
:106FA0008B4201D30B01C01A5241C3088B4201D35B
:106FB000CB00C01A524183088B4201D38B00C01A08
:106FC0005241D9D243088B4201D34B00C01A5241DF
:106FD000411A00D20146634652415B10104601D36C
:106FE0004042002B00D54942704763465B1000D3F6
:106FF000404201B5002000F005F802BD0029F8D09C
:1070000016E770477047C0468446101C62468C469F
:10701000191C634600E0C0461FB501F003FE0028BE
:1070200001D40021C8421FBD10B501F05BFD4042F4
:10703000013010BD10B501F0F5FD002801DB002086
:1070400010BD012010BDC04610B501F0EBFD0028B9
:1070500001DD002010BD012010BDC04610B501F0BB
:107060007DFD002801DC002010BD012010BDC046C0
:1070700010B501F073FD002801DA002010BD0120D9
:1070800010BDC0468446081C6146FFE71FB500F0EE
:107090001BFB002801D40021C8421FBD10B500F021
:1070A0009DFA4042013010BD10B500F00DFB0028E4
:1070B00001DB002010BD012010BDC04610B500F05E
:1070C00003FB002801DD002010BD012010BDC046DB
:1070D00010B500F0ABFA002801DC002010BD012043
:1070E00010BDC04610B500F0A1FA002801DA00205A
:1070F00010BD012010BDC046002B11D1002A0FD1B8
:10710000002900D1002802D00021C943081C07B47F
:10711000024802A14018029003BDC046E9FEFFFFED
:1071200003B4684601B5029800F084F8019B9E46BE
:1071300002B00CBC7047C046F0B5CE4647461504B9
:107140002D0C2E0080B50704140C3F0C9946030C3F
:107150007E435D43674363437F19340CE4199C46C7
:10716000A54203D980235B029846C4444B4643435F
:107170005143250C36046544360C2404A4195B19CC
:10718000591820000CBC90469946F0BD9E2110B5C0
:10719000C905041CFFF7A6FF002803D1201C00F03E
:1071A000D9FD10BD9E21201CC90500F00FFC00F088
:1071B000D1FD80231B069C466044F2E770B5002297
:1071C0000C4B04000D00FFF753FF002804D12000F2
:1071D000290002F065FB70BD064B0022200029004B
:1071E00001F0FAFF02F05CFB80231B069C46604422
:1071F000F1E7C0460000E04170B500220B4B0D00E6
:10720000040001F077FDFFF7D9FF060002F0B8FB9C
:107210000022074B01F06EFD02000B002000290048
:1072200001F0DAFFFFF7CAFF310070BD0000F03D4A
:107230000000F041F0B54F464646D646C0B50400C2
:1072400082B00D00914698468B422FD82CD04146F3
:10725000484602F0BBFC29000600200002F0B6FC04
:10726000331A9C46203B9A4600D576E04B46524660
:1072700093401F004B46624693401E00AF4228D801
:1072800025D05346A41BBD41002B00DA7BE0002231
:10729000002300920193012352469340019301235E
:1072A00062469340009318E08242D0D90022002326
:1072B000009201930A9B002B01D01C605D60009836
:1072C000019902B01CBC90469946A246F0BDA3426B
:1072D000D7D900220023009201936346002BE9D006
:1072E000FB079846414672080A437B0866460EE053
:1072F000AB4201D1A2420CD8A41A9D41012024190D
:107300006D410021013E24184D41002E06D0AB42B4
:10731000EED9013E24196D41002EF8D10098019953
:10732000534600196941002B23DB2B005246D34002
:107330002A006446E2401C0053461500002B2DDB5A
:1073400026005746BE40330026006746BE40320046
:10735000801A994100900191ACE7624620239B1A64
:107360004A46DA406146130042468A4017001F43EE
:1073700080E7624620239B1A2A0066469A40230033
:10738000F3401343D4E76246202300219B1A0022D6
:10739000009101920122DA40019280E720236246A7
:1073A00026009B1ADE402F00B0466646B740464690
:1073B0003B003343C8E7C046F8B557464E464546FE
:1073C000DE464402E0B546008846640A360EC70F22
:1073D000002E63D0FF2E24D08023E400DB041C4366
:1073E000002399469B467F3E434642465D02D20FAC
:1073F0005B006D0A1B0E9046924665D0FF2B55D060
:1074000080220021ED00D2047F3B1543F61A43464B
:107410004A467B400F2A00D98DE06D489200825881
:107420009746002C54D108239946063BFF269B46DD
:10743000DAE70025534602291BD0032900D1BFE01B
:10744000012928D030007F30002820DD6A0704D0D1
:107450000F222A40042A00D004352A0103D5300027
:107460005C4A80301540FE2803DCAC01640AC2B2DD
:1074700001E0FF2200246402D205600ADB0710430A
:1074800018433CBC90469946A246AB46F8BD012243
:10749000101A1B287CDD00220024ECE7002C1DD1F3
:1074A00004239946033B00269B469DE7FF3E002DA3
:1074B00020D1022143464A467B400A430F2AD8D8AE
:1074C0004548920082589746002D19D10121F1E7D5
:1074D0000C239946093BFF269B4685E7200002F0D6
:1074E00057FB7626431F9C4000237642361A994666
:1074F0009B4679E74A4603231A439146032186E7D0
:10750000280002F045FB431F36189D4076360021C7
:107510007DE780240023E403FF22ACE700258023DD
:10752000DB031C4228D01D4226D12B435C02640A97
:107530004346FF229FE762016C01A24224D21B2135
:107540000025013E012710006D005200002801DBDC
:10755000944201D8121B3D4301390029F3D1140094
:10756000621E944125436DE7BA46594625005346AD
:10757000022900D061E77CE78023DB031C4364021F
:10758000640A3B00FF2276E7121B1A210125D9E786
:107590009E362A00B5402C00C240651EAC41144303
:1075A000620704D00F222240042A00D00434620172
:1075B00003D4A401640A00225DE7012200245AE7F3
:1075C0008024E4032C436402640AFF2253E7C0468C
:1075D00068D70000FFFFFFF7A8D7000070B5420092
:1075E0004E024C0045026D0A120EC30F760A240E9D
:1075F000C90FFF2A0FD0FF2C11D00120A24200D0CA
:1076000070BDB542FCD18B420DD0002AF8D12800C4
:10761000451EA841F4E70120002DF1D1EBE7012040
:10762000002EEDD1E9E70020EAE7C04670B54A0038
:107630004E02450244006D0A240EC30F760A120E54
:10764000C90FFF2C15D0FF2A0ED0002C15D1002A0F
:1076500001D1002E1CD0002D14D08B4227D0022047
:10766000013B1840013870BD002EEED00220404290
:10767000F9E7002DFAD1FF2A0ED0002A0ED1002EF4
:10768000EDD00BE001230139994308000130EAE70E
:107690000020002DE7D0E2E7002EE7D18B42DED1BB
:1076A000944205DD0221581E08400138DBE7002422
:1076B000A24204DCB542D2D80020B542D3D2581E33
:1076C000012398430130CEE730B5420044024D0219
:1076D000C30F4800640A120E6D0A000EC90FFF2A7C
:1076E00012D0FF280CD0002A12D1002819D1002D69
:1076F00017D1002C2BD00220013B1840013826E086
:10770000002DF0D0022022E0002CFBD1FF281FD05A
:1077100000281FD1002D1DD10220013B1840013847
:1077200015E0002C0ED08B42E5D10022904204DC03
:10773000AC42E0D80020AC4209D2581E0123984345
:10774000013004E00123013999430800013030BDC4
:10775000002DD7D18B42CED18242E7DD0221581EC7
:1077600008400138F3E7C046F0B54E465746454657
:10777000DE46E0B543025B0A450083B00F1C994624
:107780002D0EC60F002D57D0FF2D24D08020DB00FA
:10779000C0041843002381469A469B467F3D7C02E5
:1077A0007A00FB0F640A120E984623D0FF2A4BD0B2
:1077B000E30080240020E4047F3A1C43AD186B1CD6
:1077C00047460193534677403A000F2B48D87D49EE
:1077D0009B00CB589F46002B00D085E008339A468B
:1077E000063B9B467C027A00FB0FFF25640A120EC3
:1077F0009846DBD1002C00D090E0524601231A437A
:1078000092460120DBE74C4658461700022824D058
:10781000032800D1CFE00022002301284DD15802D7
:10782000D205400AFF071043384303B03CBC9046E2
:107830009946A246AB46F0BD002B5BD104239A4685
:10784000033B00259B46AAE7FF35002C60D152463A
:1078500002231A4392460220B1E7FF220023DEE70B
:107860004B461B0C9C464B462604360C18046146BE
:107870003300220C6446000C43434E4350435443B0
:1078800080191A0C1218964203D9802149028C469D
:1078900064441B041B0C1004C01883015E1EB3411A
:1078A000800E1843130C1B199B0103431C0023017A
:1078B00079D5012362081C401443019A7F32002AC3
:1078C0004DDD630704D00F232340042B00D0043484
:1078D000230103D53C4B019A1C408032FE2ABCDCBC
:1078E000A3015B0AD2B29AE70C239A46093BFF2513
:1078F0009B4654E7180002F04BF94A46431F762591
:107900009A4000236D4291462D1A9A469B4646E7BF
:10791000524603231A439246032050E7200002F008
:1079200037F9431F2D1A9C40763D002047E78023FE
:107930000027DB03FF2272E7424666E74C4632002F
:10794000584662E780234A46DB031A4222D01C4293
:1079500020D123435B025B0A4746FF225FE70123F6
:107960009A1A1B2A21DC23000199D3409E318C40B6
:107970001A0023005C1EA34113435A0704D00F22B0
:107980001A40042A00D004335A0111D49B015B0A27
:10799000002244E780234A46DB0313435B025B0A71
:1079A0003700FF223BE7019587E70022002336E7F7
:1079B0000122002333E78023DB0323435B025B0ABE
:1079C000FF222CE7E8D70000FFFFFFF7F8B5474696
:1079D000CE464400C20F80B547024802400A8446A2
:1079E000664648007F0A240EF60025009046FB00FC
:1079F000000EC90FB146FF2800D185E00126714075
:107A0000261A914257D0002E43DD002800D07FE097
:107A10004946002900D1AAE0013E002E00D0F7E03F
:107A20005B1A5A0100D48BE09B019C09200002F0F4
:107A3000AFF805388440854200DDD3E0451B2300C4
:107A400020200135EB40451BAC40621E944123438E
:107A5000072400251C40012241460A40002C04D086
:107A60000F211940042900D00433590100D480E0CB
:107A70000135ECB2FF2D00D0A3E0FF2400235B0210
:107A8000E405580AD207204310430CBC904699469F
:107A9000F8BD002E74D1601CC0B2012800DCA7E044
:107AA0004A469C1A620100D5B6E0002CBED10022E5
:107AB00000240023E3E7002E00DC85E0002846D008
:107AC000FF2C49D080224846D2041043814601222F
:107AD0001B2E09DC20204C46801B84404A46200097
:107AE000F240441EA04102439B185A0128D501359B
:107AF000FF2D00D1A8E00122072494491A405B0819
:107B00000B4013431C40A6E7002E00D078E775E732
:107B1000FF2C54D080224946D204114389460122C9
:107B20001B2E09DC20214846891B88404A4601005B
:107B3000F240481E81410A439B1A5A0100D573E75F
:107B4000012241460A40590700D089E711E0484622
:107B5000002858D1FF2C0CD1DB08002B00D18CE77A
:107B60008020C00303435B025B0AFF2487E7FF2CEE
:107B700025D0DB08FF2DF0D05B025B0AECB27EE77C
:107B8000002C4DD0FF2818D08024E40472422343F7
:107B90001B2A00DDC4E01C002025D440AA1A934013
:107BA0005A1E934123434A460500D31A884638E7B4
:107BB000721CF8D0F243FF28EAD10A004B46FF2599
:107BC000D7E79B015B0A5AE7002E41D1651CE9B259
:107BD000012945DDFF2D00D14FE707244B445B0809
:107BE0001C4038E707225A4B2D1A2340144032E735
:107BF000002C1DD1002B7AD14B46002B00D191E0F7
:107C00000A000025B5E7013E002E19D14B446CE770
:107C1000FF2C84D1FF25ACE74A468846D41A05E7F5
:107C2000002BC5D10A00FF28C8D005004B46A0E7AD
:107C3000002B49D14B46002B77D00A00FF2598E74F
:107C4000FF2C00D043E787E70A00FF24002316E754
:107C5000002C15D1002B57D1FF28E6D14B467BE7EE
:107C6000002C20D1002B57D04946002953D04B443B
:107C70005A0168D50724364A1C4001251340EAE61C
:107C8000FF28EBD08022D204764213431B2E53DC14
:107C90002025AD1B1A00AB40F2405C1EA3411343EC
:107CA0004B44050021E7002BD8D04946002900D1DC
:107CB00052E78021C9030F4200D14DE760460842D8
:107CC00000D049E74B4647E74846FF25002800D14A
:107CD0004FE78022D203174204D06046104201D100
:107CE0004B46884601224146FF250A4041E7484667
:107CF00000281FD01A1A500120D54A460724D31A4B
:107D00001C4088460025A6E6741CC9D0F643FF280F
:107D1000BCD14B4620E799464B460025DB082BE7B4
:107D2000012340E700220023A9E680230022DB0391
:107D3000FF24A4E600251CE70123B1E7002AF1D0C7
:107D400013000025FCE60025FAE6C046FFFFFF7D94
:107D5000FFFFFFFB41024200C30F490A120E002041
:107D60007E2A0DD99D2A0CD8802000040143952A33
:107D70000ADC9620821AD1404842002B00D108002C
:107D80007047034A9818FBE7963A9140F4E7C046DB
:107D9000FFFFFF7F70B500283DD0C317C5185D40B9
:107DA000C40F280001F0F4FE9E22121A962A07DC66
:107DB000D2B2082833DD083885406802400A23E043
:107DC000992A0BDD052329001B1AD94003001B3318
:107DD0009D402B005D1EAB4119430D00052801DDC0
:107DE000431F9D402B000F490B406E0709D00F2603
:107DF0003540042D05D004335D0102D59F220B4090
:107E0000121A9B01580AD2B24002D205400AE40776
:107E10001043204370BD002400220020F4E76802D4
:107E2000400AF1E7FFFFFFFB70B5041E34D001F0FC
:107E3000AFFE9E22121A962A07DCD2B208282EDD47
:107E4000083884406002400A21E0992A09DD0300D5
:107E500021001B3399404B1E994105231B1ADC401E
:107E60000C43052801DD431F9C4023000D490B40B6
:107E7000650709D00F252C40042C05D004335C0184
:107E800002D59F220B40121A9B01580AD2B240021F
:107E9000D205400A104370BD00220020F7E76002BF
:107EA000400AF4E7FFFFFFFBF0B54F464646D646D3
:107EB0000C000903C0B5490A470F5E0039431F0390
:107EC000DB0F9C4665007B0A570F1F436D0DE40FC7
:107ED000760DA146C000B846D200AB1B64457BD0EE
:107EE000002B5FDD002E00D0A4E03E00164300D141
:107EF00012E15E1E002E00D09EE1871A4346B84272
:107F000080410125C91A4042091A0B0200D431E10F
:107F100049024E0A002E00D16EE1300001F038FE19
:107F20000300083B1F2B00DD61E120223900D21A3B
:107F30009E40D1409F400E439D4200DD51E15D1BBC
:107F40006B1C1F2B00DD7CE12021C91A3D00300095
:107F50008F408840DD40791E8F4131000722284341
:107F6000D940002507433A40002A09D00F233B405F
:107F7000042B05D03B1DBB42BF417F42C9191F00E6
:107F80000B0200D426E26A1CC64B55056D0D9A42C1
:107F900000D106E1C44AFF080A40530752023B439E
:107FA000120B8EE0002B00D0B8E06B1C5B055B0D64
:107FB000012B00DC30E1871A4346B842B641CB1AA8
:107FC00076429E1B330200D54CE13B003343A1D1E6
:107FD00000220024002570E0002B00DCE5E0002EEC
:107FE00000D183E0AF4EB54260D0802636043743DF
:107FF000B846382B00DC3EE1434613431F007A1E8F
:1080000097413F1887428041404209180B0200D433
:10801000B0E0A44B01359D4200D1C3E0A24A7B08E9
:108020000A4001210F401F435108D30707221F4375
:108030003A4099E79B4EB54238D080263604374304
:10804000B846382B00DDDCE01F2B00DC30E11E00E1
:108050004746203EF740BC46202B04D04026F31A6A
:1080600046469E403243170063467A1E97411F439F
:10807000CCE0002B00D104E24346134300D159E188
:108080004B07C00818438023C9081B03194208D0B6
:108090004546ED081D4204D14346D0085907084320
:1080A0002900420FC9007F4D1143C0004B07CA0889
:1080B0007C49C00803438D4268D012036D05120B42
:1080C0006D0D002112031800130B0A0D12051A433F
:1080D000764B2D0513402B435B00E4075B082343DD
:1080E00019001CBC90469946A246F0BD3E001643BE
:1080F00012D05E1E002E00D000E18718874280411A
:1081000041444042091801250B0233D5022585E779
:1081100064463300414610001D00C7E7002D00D023
:10812000DAE00C000443F3D05C1C00D19FE15D4C0D
:10813000A64200D12FE1DB43382B00DD66E11F2B87
:1081400000DD83E120240500E41A0F00DD40D94062
:10815000A0404346A7405B1A441EA04198462F43C7
:108160003843171ABA42924143465242991A64461A
:108170003500CAE607223A40002A00D0F6E64B074F
:10818000CA084849FF083B438D4296D11900114364
:1081900000D19EE1802109030A431203120B414DD5
:1081A0008FE71500002200238BE7002B00D0C7E0EB
:1081B0006B1C5F057F0D012F00DCF1E0394DAB42F8
:1081C00000D1B9E085180A008542894142444942FC
:1081D00051180722CF076D082F4349083A401D0068
:1081E000C2E607223049ED1A31403A40BCE63E0073
:1081F0002838864000279FE6380001F0C9FC20306F
:108200008EE6434613431F007A1E9741C71BB842B0
:1082100080414042091A78E60E003B0006431343B2
:10822000002D61D1002E00D0F4E0002B00D11BE125
:1082300064463900100039E71A4FBB427AD0330048
:10824000FFE630001F3DE840202B03D04021CB1A31
:108250009E4037437B1E9F41072207433A4000213F
:10826000002589E7171A4346BA42B641591A7642A1
:108270008E1B64464EE61F2B00DDADE020264746F0
:10828000F61AB740B9461700B246DF404E463E43A5
:1082900037005646B240561EB24117434246DA40B6
:1082A0008918AEE6FF070000FFFF7FFFFFFF0F808A
:1082B00020264746F61AB740B9461700B246DF40B7
:1082C0004E463E4337005646B240561EB241174313
:1082D0004246DA40891A99E77F4CA6425BD0802457
:1082E00024045B42214327E7002E0CD1002B00D150
:1082F000CBE0644639001000774DD7E6764FBB429D
:1083000018D0330075E6002B14D04B07C008184373
:108310008023C9081B03194207D0FC081C4204D162
:108320007907D0080843E14621004C46420FC900B6
:108330001143C000684DB9E61D0000220023C0E6CD
:10834000002D5BD10D00054300D1E2E65D1C00D19C
:10835000B0E0614DAE421FD0DB43382B71DC1F2BE8
:1083600000DD96E020250F00ED1AAF40B94607006A
:10837000AA46DF404D463D432F005546A840D94010
:10838000451EA84188440743BF1897429241514275
:10839000414435003AE6644635004146100085E622
:1083A0000B000343002D00D063E6002BF5D04346BD
:1083B000134300D17AE6871887428041072241445F
:1083C000404209183A400B0200D4D5E6434B013530
:1083D0001940C9E5380069E61E004746203EF740CF
:1083E000BC46202B04D04026F31A46469E4032431A
:1083F000170063467A1E97411F4302E6364DAE4290
:10840000CAD080252D045B422943A6E70843411EBC
:108410008841A6E6002B00D148E6871A4346B842B9
:10842000B641CB1A76429E1B33024BD5171A4346F0
:10843000BA429241591A5242891A072264463A4076
:1084400092E501430F00791E8F419DE71C000F004C
:10845000203CE740202B03D04024E31A99400843F6
:10846000411E884138437CE60022002425E6171A85
:108470004346BA429241591A5242891A644635001B
:1084800043E541461000144D10E6802200241203FB
:1084900080E61D000F00203DEF40BC46202B03D09E
:1084A0004025EB1A9940084307006346781E874130
:1084B0001F4369E7871897429B4141445B42C918B3
:1084C0003500A3E53B003343CED0072231003A40CC
:1084D00052E600231A00F4E5FF070000FFFF7FFFCC
:1084E000F0B55746DE464E464546E0B583460700A2
:1084F0000E03480085B092461C00360B400DCD0F90
:10850000002800D19DE0954B984239D08023F60099
:108510001B041E43924A7B0F334399469446030043
:108520006344009300230026FF00029323031B0BE8
:1085300098466300E40F52465B0D019400D1B3E00E
:1085400086498B4200D19EE04246D100802212042F
:108550000A435146490F11438B46814952468C4686
:1085600000996344CB1A0021D20000932B00634092
:108570009A460F2E00D905E17A4BB6009B599F46CB
:108580005B463343994600D0B8E002230826002713
:1085900000900293CAE7CB463A0002990195019BED
:1085A0009A46022927D0032900D180E2012944D02C
:1085B0006D49009B8C4663441C00002C38DD53073A
:1085C00000D013E2D2085B46DB0109D55946674B60
:1085D00019408B468021C9008C46009B63441C00D7
:1085E000634B9C4207DC5B4664055F075B021743F5
:1085F0001B0B620D02E000230027584A00211B03D9
:108600001C0B0B0D1B05234314055A4A380013405D
:108610001C4353466400DB0764081C43210005B07B
:108620003CBC90469946A246AB46F0BD0122524260
:1086300001231B1B382B00DCADE1002200230027A7
:10864000DCE75B46334399465ED0002E00D18AE1D9
:10865000300001F09DFA03000B3B1C2B00DD7BE199
:108660001D22D31A5A460100DA4008398E40130001
:108670005F46334399468F403F4B00261B1A0093B9
:108680000023029352E7414653460B433B499B4626
:108690008C46009B634400935B46002B3BD1022336
:1086A00000221E43022161E7434613439B4637D015
:1086B0004346002B00D162E1404601F069FA030015
:1086C0000B3B1C2B00DD53E102004146083A914070
:1086D00088461D21CB1A5146D9400B0041460B4319
:1086E0009B46534693401A00009B25499C46604494
:1086F00003008C4663440093002137E70323B1460F
:1087000000900C26029311E7002300930133042606
:10871000002702930AE70323C3461E43032125E7EC
:1087200001331E430022012120E700239A468023C3
:1087300000271B03094A61E7802349461B031942AE
:1087400000D1E2E05946194200D0DEE00B431B03A2
:1087500017001B0BA246014A50E7C046FF07000066
:1087600001FCFFFF28D80000FF030000FFFFFFFE11
:10877000FE070000FFFF0F800DFCFFFF01F8FFFF69
:10878000F3030000D94500D9CBE000D1C6E03C009E
:1087900048460027009B013B00935B46160E1B02D8
:1087A0001E431302984633041B0C9946310C019169
:1087B000FEF73AFB4A4642430B04210C05001943DD
:1087C0008A4207D98919013D8E4203D88A4201D9CC
:1087D000851E8919881A0199FEF726FB09048C4623
:1087E0004A46210464464243090C030021438A425D
:1087F00004D98919013B8E4200D8F1E02D041D43B4
:10880000AB464346891A4246280C12041D0C5B46AF
:10881000140C22001B041B0C5A4303946B43444367
:10882000029568431B19150CEB189C4203D9802450
:108830006402A44660441C0C15041B042D0C201873
:108840005D19814277D373D00C1AA24A7D1BAF42C7
:10885000BF419446009B7F426344E01B1C0086425C
:1088600000D1DBE00199FEF7DFFA4A4642430B04F0
:10887000290C070019438A4207D98919013F8E4202
:1088800003D88A4201D9871E8919881A0199FEF7EF
:10889000CBFA09044A46894629044D464243090C4D
:1088A000030029438A4207D98919013B8E4203D824
:1088B0008A4201D9831E89193F04891A3A00039F0D
:1088C0001A43380013041B0C584381460298150CB8
:1088D0006F43434345434846000C8446DB196344D9
:1088E0009F4203D9802040028446654448461F0CBD
:1088F00000041B04000C7D191818A94200D284E062
:1089000000D17FE001231A4357E680234A461B0328
:1089100013431B031B0BAA466F4A6FE6BA4200D9EA
:1089200035E74B46DC0758087B081C43FF0734E754
:108930000024AF4289D247444745A4415B46644284
:10894000A4196418013BA6421ED2A0426DD800D1E2
:10895000B6E0241A9B4678E703005A46283B9A4023
:108960000027914688E6584601F012F9203072E659
:1089700003005246283B9A4093460022B4E65046F4
:1089800001F006F920309AE6A642E2D1B845DCD9DA
:10899000341A9B4659E71F2B65DC504C0099A446BE
:1089A0005C46614408008C4011008240D940501E52
:1089B00082410C4314435A46DA401300620709D03F
:1089C0000F222240042A05D02200141D944289411E
:1089D00049425B181A0262D50122002300270DE6E6
:1089E0008A4200D80AE7831E891907E70F2313403C
:1089F000042B00D1E6E5171D9742924153429B4458
:108A0000FA08E0E5002800D1D7E57118531EB142FD
:108A100027D3A94215D358D01A0073E7002B00DCE6
:108A200004E6012300229B44CDE502234744474549
:108A300089415B429C46494289190C19E344241A36
:108A400003E743465F0047459B41B8465B429E199A
:108A5000023A8919A94200D054E7404500D051E7B5
:108A6000ABE51A00F6E71F215F4649420C1BE740C1
:108A7000202B07D01A49009B8C46634418005B46A4
:108A800083401A43501E82413A4307270023174070
:108A900009D00F21002311401400042995D1220090
:108AA0005F075B021B0BD20817430022A6E5802359
:108AB00059461B030B431B0317001B0B064A9DE57E
:108AC000BD42B2D89B460024BFE68045B9D31A0008
:108AD000C3E7C046FF030000FF0700001E040000BC
:108AE0003E040000F0B54F464646D6468446C0B523
:108AF0008046194E18030F034D00000B5C008246A0
:108B00003F0B6D0DC90F9146640DDB0F0120B5427F
:108B10000AD0B44203D0A54201D157450CD01CBCA9
:108B200090469946A246F0BD66463E43F7D1AC4218
:108B3000F5D154461443F2D10120C845EFD19942F2
:108B400007D0002DEBD163461F433800471EB841C4
:108B5000E5E70020E3E7C046FF070000F0B54F4619
:108B60004646D6464D00C0B50E03C90F8A462C496D
:108B70001F035C008046360B6D0D91463F0B640D64
:108B8000DB0F8D421ED08C4216D0002D1ED13043FB
:108B90008446002C01D13A4323D06246002A1AD0E1
:108BA0009A4529D0514602200139084001381CBCA1
:108BB00090469946A246F0BD39001143E5D0022007
:108BC0004042F4E73043FAD1AC420FD0002C0FD131
:108BD0003A43E7D00CE00122013B934318000130F7
:108BE000E5E763460020002BE1D0DBE73A43E6D11E
:108BF0009A45D7D1A542D5DCA54205DBBE42D1D8E6
:108C000008D00020BE42D2D25046012301389843FA
:108C10000130CCE7C845C5D80020C845F4D3C6E725
:108C2000FF070000F0B54F464646D6464D00C0B59A
:108C30000E03C90F8A462E491F035C008046360B7F
:108C40006D0D91463F0B640DDB0F8D4218D08C42A9
:108C500011D0002D18D130438446002C1ED13A4348
:108C60001CD163460020002B30D051460220013930
:108C7000084001382AE039001143EAD0022025E0FB
:108C80003043FBD1AC4226D0002C26D13A4324D12C
:108C90005146022001390840013817E06246002A97
:108CA0000FD09A45E1D1A54205DBBE42DDD819D0EF
:108CB0000020BE420AD250460123013898430130B9
:108CC00004E00122013B9343180001301CBC904694
:108CD0009946A246F0BD3A43D0D19A45C5D1A542A6
:108CE000C3DCE0E7C845C0D80020C845E3D3EDE7C2
:108CF000FF070000F0B55746DE464E464546E0B554
:108D0000834606000F03480087B092461D003F0BC4
:108D1000400DCC0F002800D16FE0DE4B984238D0D8
:108D20008023FF001B041F43730F3B430193DA4B67
:108D30000027994600239B46F60081442B036900D7
:108D40001B0B52469846490DED0F002900D185E0D6
:108D5000D04B994200D173E04346DA0080231B04D4
:108D600013435246CC48520F8446134352460020C8
:108D70006144D20089442100694000918C46012160
:108D800049448A460F2F00D990E0C449BF00CF590B
:108D9000BF465B463B43019300D06AE102230827AC
:108DA000002681469B46C9E732005846019B614632
:108DB0000091022800D175E0032800D1FEE10128CE
:108DC00000D02CE100230027002600253F032A0DB8
:108DD0003F0BB34812053A4302401B051343009A68
:108DE0005B00D1075B080B433000190007B03CBCA7
:108DF00090469946A246AB46F0BD5B463B43019385
:108E000000D12FE1002F00D1A5E1380000F0C0FE15
:108E100003000B3B1C2B00DD96E11D22D31A5A46A2
:108E20000100DA405E4608398F4013008E403B4314
:108E300001939C4B00271B1A994600239B467DE714
:108E4000414653460B4393498C46E144002B00D0E6
:108E50001AE102220220174300228CE7134300D1BB
:108E60000DE14346002B00D181E1404600F090FE29
:108E700002000B3A1C2A00DD72E10100434608396A
:108E80008B4098461D239A1A5346D3401A004346F6
:108E9000134352468A404946081A8249894681440A
:108EA000002068E77B4B002700268EE7140C120495
:108EB000120C1100370C3604350C794328008C460F
:108EC0002E0060436044834656432100300C8046A8
:108ED0005846794340440291844506D9884680210A
:108EE00049028C46E044414602913604010C360C9E
:108EF00000048B4681191E0C1B041B0C03911900E6
:108F000079438C46280075436544A8465843050CB0
:108F100045447743A94203D9802149028C466744DE
:108F2000290C8C4639000004000C2D042D186144D6
:108F3000AB4405915946049101990F043F0C080C6C
:108F4000390051434243904602008C46090C8B463F
:108F500062437C4344445C44A04503D980214902D8
:108F600088464244210C884661460904090C8C4617
:108F700039005943434370437E430F0CF6182404D1
:108F8000BE19644442448C46B34203D980235B0239
:108F900098464044029B61469846049B37044344EC
:108FA0009B46AB45AD416B420D0405992D0C8C469B
:108FB0007F196744FD18A8465D462D19A542A441B6
:108FC00093466442A446C344DC448F42BF41984563
:108FD0009B4193459241A445A4415B427F421F437C
:108FE000360C52426442BF192243BF1862463818F9
:108FF0004302D20D039913436A020A43501E824171
:109000006146ED0D2A434E023243D90100D4B3E04C
:109010000126500832400243DE0732435B08224CEF
:109020005444002C62DD510709D00F201040042861
:1090300005D0101D9042924152429B180200D90166
:1090400004D580241948E40003405444184884425D
:1090500000DD27E75E075B02D2081F0B630516439E
:109060005B0DB2E6002399460133042700269B4698
:1090700064E60323019781460C279B465EE60122A6
:1090800001201743002276E6032303201F434346B3
:1090900071E6C046FF07000001FCFFFF68D8000032
:1090A000FFFF0F800DFCFFFFFF030000FFFFFFFE2F
:1090B000FE0700000023802700933F030026434B58
:1090C00083E6019B3200A446584670E6AC466EE645
:1090D000802701993F0339422DD03B422BD11F43BA
:1090E0003F033F0B00951600384B6EE601252D1B04
:1090F000382D00DD66E61F2D40DC35481C0050444D
:10910000160082408440EE40501E82413443144396
:10911000EB40620709D00F222240042A05D022002A
:10912000141D9442804140421B181A023ED501236F
:109130000027002649E68027019B3F031F433F038A
:109140003F0B0094214B40E603005A46283B9A40CF
:10915000002601926DE6584600F01AFD203057E6D1
:1091600003005246283B9A401300002293E65046E3
:1091700000F00EFD20307BE6CA4650E71F201E009F
:109180004042041BE640202D03D0124C5444A3401F
:109190001A43501E8241324307260027164009D049
:1091A0000F200023104014000428B9D122005E07CC
:1091B0005B021F0BD2081643002306E680273F03FD
:1091C0001F433F033F0B1600004BFEE5FF07000067
:1091D0001E0400003E040000F8B557464E464546C2
:1091E000DE460C000903E0B5490A460F5F00314333
:1091F0001E03DB0F760A9B46530F3343C84E6500B0
:10920000C000E40FD2006D0DA24681467F0D9C4642
:109210009046B74200D1B9E05B46012673409B46B9
:10922000EE1BA34500D183E0002E63DD002F00D0AC
:10923000B1E06346134300D123E1731E002B00D03D
:10924000BAE1861A6346B04280410125C91A4042FC
:10925000091A0B0200D447E149024B0A98464346DB
:10926000002B00D189E1404600F092FC0300083B4E
:109270001F2B00DD7CE120223000D21A4146D04075
:10928000994002009E400A439D4200DD6AE15D1B59
:109290006B1C1F2B00DD94E1202110003500C91A42
:1092A0008E40DA408840DD40711E8E411100072259
:1092B0002843002506433240002A09D00F233340BB
:1092C000042B05D0331DB342B641764289191E00E6
:1092D0000B0200D43DE26A1C914B55056D0D9A427C
:1092E00000D119E18F4AF6080A4057075202374366
:1092F000120B9BE0002E00D0C5E06E1C7605760DAB
:10930000012E00DC48E16746861ACB1BB042BF4104
:109310007F42B8461F004346FF1A3B00B8461B0277
:1093200000D55FE137439AD100220024002579E07F
:10933000002E00DCFAE0002F00D18DE0784B9D423A
:1093400067D0802367461B041F43BC46382E00DCD1
:1093500052E1634613435A1E93411E1886428041D0
:10936000404209180B0200D4BEE06D4B01359D420E
:1093700000D1D2E06B4A73080A4001210E401E431F
:109380005108D30707221E43324095E71E001643BB
:1093900000D045E740E7624B9D423AD080236746C4
:1093A0001B041F43BC46382E00DDEBE01F2E00DC03
:1093B0003AE133006746203BDF403B00202E05D0DA
:1093C0004027BF1B6646BE40324390464646721E4B
:1093D00096413343DAE0002B00D114E26346134395
:1093E00000D168E180234E07C008C9081B0306436B
:1093F000194208D06046C008184204D163460100F3
:10940000D2085E071643F3009946C900720F444D17
:1094100011434B46DE08424B4F073743CA089D4273
:1094200000D16EE012036D05120B6D0D00211203C9
:10943000130B0A0D12051A433B4B2D0513402B430A
:109440005B00E4075B082343380019003CBC9046EE
:109450009946A246AB46F8BD6346134311D0731E2E
:10946000002B00D007E186188642804161444042CB
:10947000091801250B0237D502257BE73E0061461E
:1094800091463500C5E75C46002D00D0E1E00B00B9
:109490000343F3D0731C00D1ACE1214B9F4200D1B8
:1094A0003AE1F343382B00DD6FE11F2B00DD8CE147
:1094B00020250E00ED1AAE40B0460600AA46DE405A
:1094C000454635432E005546D940A8406346451EC3
:1094D000A8415B1A9C463043161AB2429241634639
:1094E0005242991A3D00B4E607223240002A00D0C9
:1094F000E4E60B4BF6084F073743CA089D4200D0FD
:1095000090E73B00134300D1A6E180231B031A43DD
:109510001203120B024D89E715000022002785E790
:10952000FF070000FFFF7FFFFFFF0F80002E00D02E
:10953000C7E06B1C5E05760D012E00DCF0E0C84D27
:10954000AB4200D1B9E085180A00854289416244E6
:10955000494251180722CE076D082E434908324070
:109560001D00A9E6BF49ED1A114007223240A3E6CB
:10957000320028388240002686E6300000F008FBE2
:10958000203073E6634613435A1E9341C61AB04215
:1095900080414042091A5CE60E00674606431743C5
:1095A000002D5ED1002E00D0F3E0002F00D11EE18F
:1095B0005C46614691462CE7A94FBE427BD01E0017
:1095C000F1E610001F3DE840202B03D04021CB1ACC
:1095D0009A401643731E9E410722064332400021E3
:1095E000002583E7161A6346B2428041591A404269
:1095F0000B1A98465C4632E61F2E00DDABE02027B2
:10960000BB1B9A4663465746BB40994613004F46DC
:10961000F3401F433B005746BA40571EBA4113431D
:109620006246F240891898E62027BB1B9A4663469B
:109630005746BB40994613004F46F3401F433B003B
:109640005746BA40571EBA4113436246F240891A40
:109650009CE7834B9F425FD080252D0473422943B2
:1096600020E7002E0CD1002F00D1D0E05C466146EF
:1096700091467B4DCDE67A4FBE421CD01E0065E67A
:10968000002F18D0C0084E0706438020C9080003E9
:10969000014208D06346DC08044204D12100DA46C6
:1096A000D2085E071643F300994601245346C900C9
:1096B000720F11431C406A4DABE61D0000220027CB
:1096C000B4E6002D59D10B00034300D1D6E6731C3C
:1096D00000D1B2E0624B9F421ED0F343382B6FDCC7
:1096E0001F2B00DD97E020250E00ED1AAE40B0469E
:1096F0000600AA46DE40454635432E005546A840A2
:10970000D940451EA8418C440643B6189642924162
:10971000514261443D0025E63D006146914678E6B0
:109720000B000343002D00D055E6002BF5D0634617
:10973000134300D16DE68618864280416144404261
:10974000091800220B0200D4D0E6464B013519401F
:10975000B2E5B1465DE633006746203BDF403B00A3
:10976000202E05D04027BF1B6646BE4032439046A0
:109770004646721E96413343EFE5394B9F42CBD0AC
:1097800080252D0473422943A8E70843411E8841E0
:10979000A2E6002F00D13CE66346861ACF1AB042FB
:1097A0009B415B42FB1A98461B024ED5161A634634
:1097B000B2429241591A5242891A5C4600227BE514
:1097C00001430E00711E8E419FE71D000E00203DDB
:1097D000EE40B046202B04D04025EB1A99400843B8
:1097E000814648464346411E8841184374E600229C
:1097F000002417E6161A6346B2429241591A5242A1
:10980000891A3D0025E561469146154D01E6802205
:109810000024120379E61D000E00203DEE40B04604
:10982000202B04D04025EB1A9940084381464E4630
:109830004346711E8E411E4367E7861896429B4140
:1098400061445B42C9183D008CE547463743CED0A2
:1098500007224146324049E600273A00E6E5C04685
:10986000FF070000FFFF7FFF70B50C4E0D031C03C8
:1098700049005B002D0B490D240B5B0DB14208D054
:10988000064900208B4203D114432000441EA0410E
:1098900070BD05430120002DFAD1F1E7FF0700005C
:1098A00030B5144D0A034B00120B5B0DC90F002499
:1098B000AB4211DD104CA34210DC80246403224330
:1098C0000E4CE41A1F2C0CDD0D48C31ADA401300AD
:1098D0005C42002900D11C00200030BD094BCC188F
:1098E000FAE7094DE040AC4663449A401300034355
:1098F000EEE7C046FE0300001D0400003304000034
:1099000013040000FFFFFF7FEDFBFFFF70B5002891
:109910002DD0C317C5185D40C40F280000F038F9DA
:10992000154B1B1A5B055B0D0A2815DD0B388540AE
:1099300000222D032D0B002110002D030A0D2D0BED
:1099400012052A430D4D1B052A4013435B00E40713
:109950005B082343190070BD0200290015329140B5
:109960000A000B21081AC5402D032D0BE3E7002444
:10997000002300250022DEE71E040000FFFF0F8009
:1099800010B5041E25D000F003F9144B1B1A5B051B
:109990005B0D0A2812DD0B38844000222403240BBF
:1099A0000021100024030A0D240B120522430C4C45
:1099B0001B05224013435B00590810BD0200210023
:1099C000153291400A000B21081AC4402403240BCD
:1099D000E6E7002300240022E2E7C0461E04000060
:1099E000FFFF0F804100090E4B1C70B5DBB2460231
:1099F000750AC40F012B14DDE0239B006D07360BA5
:109A0000CB1800210A0D280012051C4D32435B05BE
:109A10002A405B0813435B00E4075B0823431900FB
:109A200070BD002914D1002D1ED0280000F0B0F820
:109A30000A281CDC0B232A001B1ADA40030015330A
:109A40009D400F4B12031B1A5B05160B5B0DD8E7ED
:109A5000002D06D0320B802636036D071643094BC6
:109A6000CFE7084B0026CCE700230026C9E7030018
:109A70002A000B3B9A400025E3E7C046FFFF0F801A
:109A800089030000FF070000F0B54C00640D0B03D4
:109A9000621C5B0A460F5205C90F1E43C500520DDA
:109AA000012A29DD374BE718FE2F1CDC002F3BDD98
:109AB0008001431E98410722F3006D0F03432B439F
:109AC0001A40002A04D00F221A40042A00D004337E
:109AD0008022D2041A4024D00137FAB2FF2F02D0DC
:109AE0009B01580A01E0FF2200204002D205400AF3
:109AF000C90710430843F0BD3543002C04D1002DA5
:109B00000AD100220020F0E7002DECD08020C00315
:109B10003043FF22E9E7002400235B02580AE2B247
:109B2000E3E7DB083C00F8E73B001733F3DB802377
:109B30001B0433431E26F61B1F2E14DD0222524245
:109B4000D71B1A00FA401700202E04D00E4A944664
:109B50006444A3401D432B005D1EAB4107223B43E1
:109B60001A400027ADE7094A2800A2189540934003
:109B70006C1EA541F04007222B4303431A400027E7
:109B80009FE7C04680FCFFFFA2FCFFFF82FCFFFFB7
:109B90001C2101231B04984201D3000C10391B0A1D
:109BA000984201D3000A08391B09984201D30009E1
:109BB000043902A2105C40187047C0460403020238
:109BC00001010101000000000000000010B50029A3
:109BD00003D1FFF7DDFF203002E0081CFFF7D8FFBC
:109BE00010BDC0460023C25C0133002AFBD1581EC1
:109BF000704772B662B6704772B662B670470000C0
:109C000010B582B072B66B46DC1D0B4B1A689E23F2
:109C10005B00D3582100002098472378002B07D001
:109C2000054B1A6898235B00D35801000020984721
:109C300062B602B010BDC0466805002072B662B6BA
:109C4000704772B662B6704772B662B6704772B647
:109C500062B6704700B587B072B6032003F082FA8F
:109C6000002805D1032003F083FA62B607B000BDD7
:109C7000032003F039FAFA235B009842F2D90C4B27
:109C8000E822995CE920185C00020843013080B2A8
:109C90009854020AE8335A7003A901F03DFE00907F
:109CA000044B1F22BD21242002F0ACF8DAE7C046A5
:109CB0006C0500203084000072B662B6704710B5A3
:109CC00072B6002003F0A4F9032003F043FA62B651
:109CD00010BD72B662B6704770B584B0050002223E
:109CE0005B4901F0EDFE5B4E02222900300001F0DD
:109CF000E7FE0023AB70EB7031001C3928001330F5
:109D00000F2201F0DDFE31000D392800223005223E
:109D100001F0D6FE3400AB3C6823E25C0133E35C27
:109D20001B0213436A22A25C120413436B22A25C3F
:109D300012061A436C23E35C6D21615C090219432E
:109D40006E23E35C1B0419436F23E35C1B060B4388
:109D5000290027310A70100A4870100C8870120E02
:109D6000CA700B711A0A4A711A0C8A711B0ECB71D8
:109D7000A723E35CA822A25C12021A43A923E35C96
:109D80001B041A43AA23E35C1B0613432A002F3249
:109D90001370190A5170190C91701B0ED370A32304
:109DA000E35CA422A25C12021A43A523E35C1B0419
:109DB0001A43A623E35C1B0613432A0033321370B5
:109DC000190A51701902090E91701B0ED3702100EF
:109DD000703128003730142201F072FE1E4B1B68D0
:109DE0001B6901A8984728004B30042201A901F003
:109DF00067FE28004F301E22210001F061FE210085
:109E00001E3128006D30142201F05AFE210032313B
:109E100028008130142201F053FE21004631280031
:109E200095301E2201F04CFE210084312800CB30F9
:109E30000B2201F045FEE8230022EA542B00E83310
:109E40005A7002323100280001F03AFE04B070BDB1
:109E50005CDD00004301002068050020F0B59FB0E4
:109E60000400AE4A1368591C11609BB283701B0A30
:109E7000C37010211A2002F0DBFE1021072002F02F
:109E8000D7FE1A2002F03CFEFFF740FDA44AA54B86
:109E9000FEF730FF0022A44BFFF79EF9A34AA44B24
:109EA000FEF71EFB02000B000020A249FFF794F909
:109EB0000022A14BFEF71EFFFFF7F2FCB323E05494
:109EC000020A2300B3335A70020C9A70020EDA7041
:109ED000FFF71CFD0022984BFEF702FB1CAB012292
:109EE00001F058FD0090954B1F226921962001F04A
:109EF00089FF072002F004FEE623E054000A230055
:109F0000E63358708E4B1B78012B25D18C4B0022E9
:109F10001A7012AD8B4EBE235B003268D3582800F6
:109F200098470F2229002000D63001F0C9FD201DDE
:109F30000F2217A901F0C4FD3268BC235B00D3587F
:109F4000280098472A78E523E254132249216944DE
:109F50002000FE3001F0B4FD022002F0D1FDFDF73B
:109F600063FFFFF73FFD0022774BFEF7C3FE0022A1
:109F7000764BFEF7B5FAFFF787FDFFF733FD0600D6
:109F80000F0002000B0000206F49FFF725F90200C7
:109F90000B0030003900FEF7A3FA00226C4BFEF7ED
:109FA000A9FEFFF771FDFFF71DFD0022684BFEF7CC
:109FB00097FA03F0EBF8674D0022674BFEF790FA33
:109FC000664A674BFDF770FF02000B0000206549F1
:109FD000FEF786FA644A654BFFF7FEF80022644BF1
:109FE000FDF762FF0022544BFEF784FEFFF758FC9A
:109FF000FDF7D0FE5F49FDF7DFF900271823FF3397
:10A00000E854020A2B001833FF335A70020C9A707E
:10A01000000ED870072002F073FD1C23FF33E854B4
:10A02000000A2B001C33FF335870464E33685B6EBA
:10A03000514898471E23FF33E85433685B6E4F48FE
:10A0400098478F235B00E854082002F059FD202335
:10A05000FF33E854000A2B002033FF335870336875
:10A060005B6E474898472223FF33E85433685B6EA2
:10A070000D20984791235B00E8542423FF330022EE
:10A08000EA542B002433FF335A70A0329A705F3A9F
:10A09000DA702823FF331F3AEA542B002833FF33AA
:10A0A0001D325A702A23FF33EF540133EF543268C4
:10A0B0006233D35806A8984700282CD106AA23005B
:10A0C000B7332000C5301178197001320133834253
:10A0D000F9D102AB09220A980B9901F05BFC22002E
:10A0E000EA32002302A8195C117001330132092BF6
:10A0F000F9D1EA332C22E25402AB223A0C980D99A2
:10A1000001F048FCF434002302A95A5C22700133A8
:10A1100001340A2BF9D11FB0F0BDC04694000020D5
:10A120009A9999999999A93F00788640713D0AD7E3
:10A13000A370FB3F00003940000024403084000041
:10A140009A0600206805002000C8A940E0FFEF4003
:10A150000088C3406C05002000D6AA4083DBB5DC34
:10A16000E1796B3F0000F03F6666666666127140FB
:10A170000000E03F00002041130400001D04000027
:10A1800001020000F0B5C64600B58CB004AD1E2239
:10A190000021280003F0A9FAA023AE4C00945B0034
:10A1A000F0220021002001F0AFFE012700972623B6
:10A1B000EE220221022001F0CDFEF822A64B0093F0
:10A1C000230012020F21422001F01CFE00260096FF
:10A1D0007B23EE222B21022001F0BCFE9F4B00933B
:10A1E000230000222D21062001F00CFE9C4B9846F6
:10A1F000C0235B0042461268D358280098472E754A
:10A20000009523001F222D213C2001F0FBFD954BE2
:10A210000093230000224121062001F0F3FD434674
:10A220001A68C2235B00D358280098470095230082
:10A230001F224121582001F0E5FD8B4B00932300A4
:10A2400000224121782001F0DDFD884B9846042250
:10A250001900280001F034FC6E71009523001F22C4
:10A260004121C82001F0CEFD814B00932300002244
:10A270005521062001F0C6FD7E4B009323000022ED
:10A280006921062001F0BEFD10211A2002F0D0FC49
:10A290001A2002F035FCFFF739FB774A774BFEF7BF
:10A2A00029FD0022764BFEF797FF764A764BFEF7A4
:10A2B00017F902000B0000207449FEF78DFF002201
:10A2C000734BFEF717FDFFF7EBFAFFF759FB002280
:10A2D0006F4BFEF705F902AB012201F05BFB00902A
:10A2E00023001F226921962001F08CFD0097E423B2
:10A2F000EE227F21022001F02DFE664B0093230009
:10A3000000228321062001F07DFD634B0093230092
:10A3100000229521062001F075FD604B009323007B
:10A320000022A921062001F06DFD41462B310F22AC
:10A33000280001F0C5FBEE73009523001F22A92120
:10A34000412001F05FFD564B009323001F22A921FD
:10A35000B92001F057FD41463A310522280001F0AD
:10A36000AFFB6E71009523001F22A921C32001F0CD
:10A3700049FD4C4B009323000022BD21062001F033
:10A3800041FD494B009323001F22BD21B42001F061
:10A3900039FD4246643AA323D05C0133D35C1B02EF
:10A3A0000343A521505C000403430131505C0006C7
:10A3B0001843290001F0B0FA009023001F22BD21AC
:10A3C000B42001F01FFD394B009323001F22BD2153
:10A3D000242001F017FD364B009323000022D121E9
:10A3E000062001F00FFD334B009323001F22D121E3
:10A3F000312001F007FD10230096FF33EE22E82103
:10A40000022001F0A7FD2C4B009323000022EB213A
:10A41000062001F0F7FC294B009323000022FD21C8
:10A42000062001F0EFFC3E2314210097FF33EE22BB
:10A43000FF31022001F08EFD8B21214B0093230080
:10A4400000224900062001F0DDFC0CB004BC90465F
:10A45000F0BDC04630840000A8D80000B8D8000085
:10A4600068050020D4D80000F4D80000FC000020CB
:10A4700004D9000024D900009A9999999999A93F83
:10A4800000788640713D0AD7A370FB3F0000394039
:10A490000000244044D9000060D900007CD90000AD
:10A4A00098D900009CD90000B8D90000C0D900009C
:10A4B000C4D90000E0D90000F4D9000014DA00008B
:10A4C00030DA0000F0B5DE4657464E464546E0B568
:10A4D000D64CA54402F08AFAD54DD6480021286012
:10A4E0006960D54C23689B68984723685B689847E8
:10A4F00072B6D24B00221A80D14B01321A70B023AF
:10A500005B002268D35801209847FA2149000020B7
:10A5100002F03EFDCB49032002F08CFD23685B6B0B
:10A5200098472868696823689B68984701F080FB12
:10A530001021022002F07CFB1021072002F078FBA2
:10A54000C14D2368DB6D0022002128009847236855
:10A55000DB6E012128009847BC4D2368DB6D00228B
:10A560000021280098472368DB6E012128009847C6
:10A570001021082002F05CFB2368DB6D0122012121
:10A58000B34898472368DB6D012201210D209847CD
:10A59000002002F025FD032002F0CCFD62B6AD4D97
:10A5A00023681C6CAD2300223F212800A047AA4845
:10A5B000FFF792FBFFF7E6FDA723EA5C0133EB5CB4
:10A5C0001B021343A922AA5C12041343AA22AA5C09
:10A5D00012061A43A14B1B789B0669D59D49531C53
:10A5E000A7200B54180AA73148701802000E887073
:10A5F0001B0ECB709748A723C35CA821415C0902BE
:10A600001943A923C35C1B041943AA23C35C1B067B
:10A610000B439A420BD0884C23689B6B3F20984792
:10A620002368DC6B8B4BAD2200213F20A047962195
:10A630008B4B00938B4B1F224900062001F0E2FB5D
:10A6400000257D4E884B0F3B0593B0235B0032689D
:10A65000D35801209847854800F06AFE814F962420
:10A660006400834B00933B001F222100062001F071
:10A67000C9FB7E4800F05CFE7E4B00933B001F222E
:10A680002100062001F0BEFBB2235B003268D358E4
:10A690009847049000282CD0012816D002281ED0FC
:10A6A000654B1A68B0235B00D35802209847CCE76B
:10A6B0006A4B1B78DB09BAD0664B0021A7201954DE
:10A6C0001B1859709970D97094E796216A4B0093C2
:10A6D0003B001F224900062001F094FBE0E7962191
:10A6E000664B00935F4B1F224900062001F08AFB56
:10A6F000D6E7514FBE235B003A68D358FFA87030AD
:10A700009847584CFFAB8433009323001F225521F8
:10A710003C2001F077FB9621594B009323001F2228
:10A720004900062001F06EFB3A68B4235B00D35861
:10A73000984700280ED0404B9946B4277F004B46DF
:10A740001B68DB59984704000135EDB20A2D03D888
:10A750000028F4D12C0012E0374DB0277F002B6881
:10A76000DB5900209847414800F0E2FD2B68DB5997
:10A77000022098473D4800F0DBFD002C0BD1052559
:10A78000FFAB703398462C4B9B46BC277F002300C1
:10A790002C001D0024E096213A4B0093314B1F22E0
:10A7A0004900062001F02EFB234FB0256D003B68C9
:10A7B0005B59002098472D4C200000F0B9FD3B6804
:10A7C0005B5902209847200000F0B2FD049D3CE751
:10A7D000FA20800000F0ACFD013CA4B2002C53D064
:10A7E0005B461B68DB59404698470028F0D1FFAB19
:10A7F00071339A461322190010A801F061F95346EB
:10A800000093184B1F2283213C2001F0FBFA4346A2
:10A810001878FFA9503101F07FF80090114B1F22EA
:10A820009621AA2001F0EEFAD6E7C0462CFBFFFFE6
:10A8300060050020F226B35E68050020980600201F
:10A840009A0600201100CC00130400001D04000033
:10A8500001020000980000206C05002000F0074075
:10A860004CDA000030840000360100207017000030
:10A870006CDA00008CDA0000ACDA0000CCDA000000
:10A88000ECDA00000CDB00009621D54B0093D54B91
:10A890001F224900062001F0B5FAD34B1A68B623EF
:10A8A0005B00D358D149059898470B9000282AD1CE
:10A8B0009621CF4B0093CB4B1F224900062001F07D
:10A8C000A1FAC94B1A68C4235B00D35803209847E8
:10A8D0000F230CAA9446634418700B9B0C9300231F
:10A8E0000024089309940133069300239946BE4B34
:10A8F0009A46C04B9B46BD4B0F3B0593BE4B233343
:10A900000D93C846FAE19621BC4B0093B54B1F222C
:10A910004900062001F076FAB34B1A68B0235B00B9
:10A92000D3580220984790E65B465B688B4200D084
:10A93000EFE176E20A9B012B13D00A9B002B00D09B
:10A9400016E2AF4EA84F3B681B6E012130009847BE
:10A950003B685B6E300098470100AA4801F0E2FFB7
:10A9600006E2A94B2422FF32985C01329A5C120263
:10A9700002432621FF31585C000402430131585C38
:10A98000000610431822FF329E5C01329A5C1202CC
:10A9900016431A22FF32995C09040E438D214900A7
:10A9A000595C09063143FCF789FB002800D1DFE13F
:10A9B000934E8D4F3B681B6E0021300098473B68DB
:10A9C0005B6E3000984701008E4801F0ABFFCFE18D
:10A9D0004346049300F035FC5733D35C302B44D00E
:10A9E000312B01D000F037FC0222884918A801F071
:10A9F00067F80F22804932200CAB9C46604401F07E
:10AA00005FF808220D9941200CAB9C46604401F090
:10AA100057F87949AF31042249200CAB9C46604479
:10AA200001F04EF87449E13101224D200CAB9C46F7
:10AA3000604401F045F87049E23102224E200CAB2F
:10AA40009C46604401F03CF86B49E431022220A8A6
:10AA500001F036F86849FA31192252200CAB9C46B5
:10AA6000604401F02DF800F0F6FB674D02226749C3
:10AA7000280001F025F82C24FF342200290018A812
:10AA800001F01EF80394E6E39621614B0093554BC9
:10AA90001F224900062001F0B5F996256D005D4F93
:10AAA0000097504B1F222900062001F0ABF94E4CB5
:10AAB000B226760023689B599847642000F038FC42
:10AAC0000097484B1F222900062001F09BF92368BC
:10AAD0009B599847504B0093424B1F222900062058
:10AAE00001F090F9B4235B002268D35898474B4B90
:10AAF00000933C4B1F222900062001F083F92268B5
:10AB0000B6235B00D358394905989847002832D1BD
:10AB100096246400424B0093324B1F2221000620F2
:10AB200001F070F93F4B00932E4B1F2221000620AD
:10AB300001F068F92C4B1A68B8235B00D35818A9A8
:10AB4000039898470600384B0093264B1F2221009C
:10AB5000062001F057F9002E19D0012E94D0022EB4
:10AB60009BD19621314B00931E4B1F22490006209A
:10AB700001F048F991E796212D4B0093194B1F22C4
:10AB80004900062001F03EF9049B984660E19621B9
:10AB9000284B0093134B1F224900062001F032F985
:10ABA000049B984654E1FFAB4C335B78302B47D085
:10ABB000312B00D1CDE1322B00D1D5E1332B00D1A7
:10ABC000DDE11D4B00221A800023039396211B4BCD
:10ABD0000093044B1F224900062001F013F952E0B4
:10ABE0002CDB0000308400006805002036010020C6
:10ABF0006CDB000060050020700500204CDB0000CD
:10AC000001020000A4DB00006C05002043010020CD
:10AC100014DC000054DC000074DC000094DC000054
:10AC2000D4DC0000B4DB0000D4DB000034DC000026
:10AC3000B4DC0000F4DB0000980600203CDD0000DE
:10AC4000AD22EB4932200CAB9C46604400F038FF4B
:10AC5000AF230393E74B1A68B8235B00D35818A9B6
:10AC600003989847E44B00221A80002800D1CAE2DA
:10AC7000FF28ABD09621E14B0093E14B1F22490006
:10AC8000062001F0BFF8012D00D0C6E2D94C2368A0
:10AC90009B6B3F2098472368DC6BD54BAD2200218E
:10ACA0003F20A047FFF76EFAD24B1A68BE235B0025
:10ACB000D358FFA870309847D14CFFAB8433009332
:10ACC00023001F2255213C2001F09CF810AB00937B
:10ACD00023001F2283213C2001F094F8FFA950316A
:10ACE000089800F019FE009023001F22FB215A2033
:10ACF00001F088F801230C930B9B069353461B68C5
:10AD00005B68984704000D005B461B68834200D1D6
:10AD10000AE6B84E33685B6EBA48984704900A90CA
:10AD200033685B6EB84898470790B84E2A27FF37BC
:10AD3000F25D91461823FF33F05C0133F35C1B0294
:10AD400003431A22FF32B05C000403430132B05CBB
:10AD500000061843FEF746FE00900191049B4A4608
:10AD60000799AB4801F0DEFDF35D012B00D1E1E571
:10AD7000A84B1C605D60A54E330027331C70220A6F
:10AD80005A70220C9A70220EDA701D712A0A5A71BA
:10AD90002A02120E9A712A0EDA719F4F3A00200091
:10ADA000290000F0A5FD380001F0BCFD9B4801F032
:10ADB000B9FD0097924B1F22D121312001F022F8DA
:10ADC0002723F05C0133F35C1B0203432922B05CB0
:10ADD000000403430132B05C000618432B23F15CEE
:10ADE0000133F35C1B020B430332B15C09040B43D8
:10ADF0000132B15C090619437D4DA323EC5C01339C
:10AE0000EB5C1B021C43A523EA5C12041443A6223C
:10AE1000AA5C120622430023FCF76EF91A4300D104
:10AE200000E27A4BE8229A5CE921585C0002104368
:10AE30000490404508D00321FBF7F6FF89B20029B2
:10AE400000D1FEE1049B9846069B012B00D1BFE593
:10AE5000684B1A68CE235B00D358674970489847FF
:10AE6000051E00D048E701220023089809998018A0
:10AE700059410890099196216A4B0093604B1E320C
:10AE80004900062000F0BEFF654CFFAE4C360222A2
:10AE90002100300000F014FE0222210018A800F06A
:10AEA0000FFE3378412B00D17DE6422B72D0552B1B
:10AEB00000D086E6FFAB4C335B78302B00D1DFE06F
:10AEC000312B00D07DE60222FFA94C31564800F01C
:10AED000F7FD494B1B8801220C923B2B00D070E6FA
:10AEE0004F4C4A4E01322100300000F0E9FDA11C18
:10AEF000301D0F2200F0E4FD210011313000273019
:10AF0000082200F0DDFD210019313000B3300422A9
:10AF100000F0D6FD21001D313000E530012200F0A7
:10AF2000CFFD21001E313000E630022200F0C8FDC6
:10AF3000210020313000E830022200F0C1FD210064
:10AF400022313000FE30192200F0BAFD01230C93AB
:10AF500037E68F22264932200CAB9C46604400F035
:10AF6000AFFD9123039375E61422304932200CABD8
:10AF70009C46604400F0A4FD162303936AE6082271
:10AF80002B4932200CAB9C46604400F099FD0A230B
:10AF900003935FE6FFAB4C335B78302B17D0312B3C
:10AFA0004CD0322B5BD0332B00D00AE6082221494B
:10AFB0001F4800F085FD07221F4932200CAB9C463C
:10AFC000604400F07DFD09230393012542E6AD2294
:10AFD0001849074800F074FD0722174932200CABCE
:10AFE0009C46604400F06CFD09230393012531E683
:10AFF00098000020680500209806002034DC00003E
:10B00000308400001D040000010200006C050020D7
:10B010008CDB00006005002048050020B0DB00004C
:10B0200048010020F4DC000043010020270100203B
:10B030003B0100204A01002014DD00007C22A649CB
:10B04000A64800F03DFD0722A54932200CAB9C46E6
:10B05000604400F035FD092303930125FAE51E2223
:10B060009D49A04800F02CFD07229D4932200CABE1
:10B070009C46604400F024FD092303930125E9E583
:10B080000222FFA94C31984800F01AFD2C23FF330F
:10B09000964A128801210C919A4200D091E52C2207
:10B0A000934CFF329349200000F00AFD21004F31FC
:10B0B0008A4E1E22300000F003FD21006D31300069
:10B0C0001E30142200F0FCFC2100813130003230AF
:10B0D000142200F0F5FC21009531300046301E228C
:10B0E00000F0EEFC844D2B681B69FFA85030984798
:10B0F00020004B300422FFA9503100F0E1FC27234F
:10B10000E05C0133E35C1B0203432922A05C0004E2
:10B1100003430132A05C000618432B23E15C01339A
:10B12000E35C1B020B430332A15C09040B430132B5
:10B13000A15C090619432B689B68984721003731A9
:10B1400030007030142200F0BBFC2100CB31300005
:10B1500084300B2200F0B4FC2100133130008F301A
:10B160000F2200F0ADFC2100223130009E3005227C
:10B1700000F0A6FC3323E35C3422A25C12021A43E3
:10B180003523E35C1B041A433623E35C1B0613439D
:10B19000A322B354190A3200A3325170190C9170D2
:10B1A0001B0ED3702F23E35C3022A25C12021A43E1
:10B1B0003123E35C1B041A433223E35C1B06134375
:10B1C000A722B3541A0A3100A7314A701A02120E8C
:10B1D0008A701B0ECB703000AB300222210000F0D1
:10B1E0006FFC91235B00E15C2B681B6E0D20984780
:10B1F0002223FF33E15C2B681B6E404898470123F4
:10B200000C930125DDE496213D4B00933D4B1F221D
:10B210004900062000F0F6FD35E50C9B012B00D01F
:10B220006AE53FE5324BE8229A5CE921585C00026E
:10B2300010430490012306934346834200D0FAE56D
:10B2400004932B48FEF70AFE244AAB23D35C552B0C
:10B2500001D1FFF7C1FB2B4C2B4B009323001F2286
:10B260009621AA2000F0CEFD214AE523D05CFFA95B
:10B27000503100F051FB009023001F229621AA209C
:10B2800000F0C0FD96256D00204B009323001F2287
:10B290002900062000F0B6FD174B1A68B8235B00A2
:10B2A000D35818A9039898470600194B0093230018
:10B2B0001F222900062000F0A5FD002E00D04CE43E
:10B2C0009621144B009323001F224900062000F012
:10B2D00099FD049B9846BBE54A0100209800002098
:10B2E00014DD000027010020430100209806002003
:10B2F0006C050020480100206805002001020000C4
:10B300001CDD000030840000ACDC0000B4DB000079
:10B31000D4DB0000F4DB0000202805DC1F231840EC
:10B320001E3B8340014A13607047C04600E100E0C5
:10B3300003008000C0180301181A800104D0002304
:10B34000C04601338342FBD170470000F0B5DE46B2
:10B3500057464E464546E0B5B3B005000C00914651
:10B360006822CF4918A802F0B7F90C950D94CD4B7F
:10B370000C990D9A9A4203D806D1CB4B9D4203D922
:10B38000C94BC84C0C930D94C84B002408930994E6
:10B39000012300240E930F94089A099B0E980F998D
:10B3A00012184B41D90756080E435F08012040424E
:10B3B000C117801979410A900B91730FFA001A4353
:10B3C0001192F3001093109A119B92197B41510F27
:10B3D000DC000C431394D3001293129C139DA41908
:10B3E0007D41A30FAA001A431592A3001493149A47
:10B3F000159BA4185D41AE4A01235B42A4185D4130
:10B400000A980B998B0782081A4316928B08179398
:10B41000169A179BA4185D41C82252000023FBF71F
:10B420006BFE24184D41642200230A980B99FBF708
:10B4300063FE241A8D41200029009E4A0023FBF759
:10B440007BFE0C9B834200D112E10C9B0D9C8C4235
:10B4500000D9F4E000D084E00C9B834200D880E067
:10B46000EDE00D9B994200D0DDE001220023B618EB
:10B470005F410E960F9701225242D3170E9C0F9DEB
:10B48000200029008018594102267642F717230030
:10B490002C009B197C411E00270004000D00410F69
:10B4A000EB000B4320002900E200029003911218E8
:10B4B0004B41510FDD000D43D4000298039924182D
:10B4C0004D41A30FA9001943A00024184D41BB070B
:10B4D000B0081843B90824184D4175480121494264
:10B4E00024184D41C8225200002330003900FBF7D8
:10B4F00003FE24184D416422002330003900FBF77D
:10B50000FBFD241A8D41200029006A4A0023FBF725
:10B5100013FE0C9B0D9C1B1A8C410093019403237A
:10B5200002980399034208D164220023FBF7E4FD4B
:10B530001A4301239A46002A0AD1C8225200002346
:10B5400002980399FBF7D8FD1A43534253419A4698
:10B550001AAB984601260027C0E0089B099C0A9375
:10B560000B940E990F9A0A9B0B9CA24200D982E77A
:10B5700000D177E00E9A0F9B0A980B9912184B4155
:10B58000D90756080E435F0801204042C1178019B1
:10B59000794108900991730FFA001A430192F30060
:10B5A0000093009A019B92197B41510FDC000C43E0
:10B5B0000394D3000293029C039DA4197D41A30F21
:10B5C000AA001A430592A3000493049A059BA418A9
:10B5D0005D41374A01235B42A4185D4108980999EF
:10B5E0008B0782081A4306928B080793069A079BDB
:10B5F000A4185D41C82252000023FBF77DFD2418EA
:10B600004D416422002308980999FBF775FD241A1F
:10B610008D4120002900274A0023FBF78DFD0C9B5C
:10B62000984200D11DE70C9B0D9C8C4203D894D10D
:10B630000C9B834291D90A9B0B9C0893099401238C
:10B6400000249B197C410E930F940899099A944207
:10B6500000D910E700D09FE60E9B089A934200D8CD
:10B660009AE608E70E9B0A9A934200D882E702E71F
:10B670000D9B8B4200D0E8E6F7E6002F01D1012EAA
:10B6800035D80C4A002320002900FBF755FD009B0C
:10B69000019CA14249D81AD1009B984217D944E095
:10B6A00000D70000FA1E0100FFB34CE40F27000092
:10B6B00093FEFFFF005C2605534A0023200029006B
:10B6C000FBF73AFD009B019CA1422ED825D0012317
:10B6D0000024F618674107339C46E044C3464346BE
:10B6E0001C685D685346002BE6D0002FC5D00120B2
:10B6F000002100196941444A0023FBF71DFD049015
:10B70000009A019B994210D80BD001220023A41863
:10B710005D415B461C605D60D9E7009B9842D6D9CD
:10B7200003E0009B049A9A42EFD9F10032AB9C46A9
:10B7300061447039344A002308684968FBF7FCFC0F
:10B74000009C019D241A8D412F4A002320002900CE
:10B75000FBF7D2FC100019002C4A00230090019145
:10B76000FBF7CAFC10001900294A00230490059138
:10B77000FBF7C2FC069207934B461B680299039A9B
:10B7800019605A604B465B681E605F604B469E685E
:10B790001D4A002320002900FBF7AEFC30607160D9
:10B7A0004B46DE68194A002300980199FBF7A4FC78
:10B7B000306071604B461E69154A00230498059954
:10B7C000FBF79AFC306071604B465E69FA2292008A
:10B7D0000023069C079D20002900FBF78DFC3060AC
:10B7E00071604B469E69FA229200002320002900D6
:10B7F000FBF782FC3260736033B03CBC90469946E4
:10B80000A246AB46F0BDC046005C260580EE360081
:10B8100060EA000070B582B000900191002B19D051
:10B82000591E5518023AD218C9B2561A0A220023D4
:10B8300000980199FBF760FCD4B20A22002300981B
:10B840000199FBF759FC0090019130342C70013DB7
:10B85000B542EBD102B070BD70B596B0140014AB18
:10B86000019312AB029310AB03930EAB04930CAB9A
:10B8700005930AAB069308AB079301AAFFF766FD91
:10B880000423220014981599FFF7C4FF2D25257174
:10B89000621D022312981399FFF7BCFFE571220085
:10B8A000083201200021109D119E40197141022390
:10B8B000FFF7B0FF2023A37222000B321E3B0E982D
:10B8C0000F99FFF7A7FF3A25657322000E32022376
:10B8D0000C980D99FFF79EFF257422001132022368
:10B8E0000A980B99FFF796FF0023E37416B070BD1A
:10B8F00010B51400FA2292000023FBF71DFC044A45
:10B90000044B801859412200FFF7A6FF10BDC04626
:10B9100000D82C1283380000F0B5C64600B50600EA
:10B920000C0000239846002801DB270004E0464273
:10B9300001339846F9E72F000A213000FBF75EFB40
:10B94000303139707D1C0A213000FBF771FA061E78
:10B95000F1D14346012B19D000232B70013DAC429D
:10B9600010D221000B7828781B18DBB20B702878D6
:10B970001B1ADBB22B700878C31A0B700131013D22
:10B98000A942EFD3200004BC9046F0BD2C332B70AD
:10B99000BD1CE1E7F0B5CE46474680B585B0060050
:10B9A0000F009046039300220023FBF743FB00287F
:10B9B00013D10023994630003900FDF771FF0400D0
:10B9C000FDF7A4FF02000B0030003900FDF704FC76
:10B9D000FEF75AF8051C039F0BE032003B000020E5
:10B9E0000021FDF7F9FB06000F0001239946E2E76D
:10B9F00037007E1C0A212000FBF700FB3031397034
:10BA00000A212000FBF714FA041EF1D14B46012B4A
:10BA10001BD0701E039981420FD20B7802789B18BD
:10BA2000DBB20B7002789B1ADBB203700A78D31A70
:10BA30000B70013101388142EFD32E233370771C14
:10BA40003400444426003C0004E0BE1C2C337B70D0
:10BA5000DFE7013427001649281CFBF785FE051C8B
:10BA6000FCF778F9030030332370B44218D0FCF7A8
:10BA700091F9011C281CFBF7A9FF051CFDF7B2FF7B
:10BA80000C4A0D4B00900191FBF7E8FA0028E0D03A
:10BA9000084A0A4B00980199FBF7CCFA0028D8D045
:10BAA00000237B70039805B00CBC90469946F0BD0E
:10BAB000000020418DEDB5A0F7C6B0BEF7C6B03E80
:10BAC00010B5002A06D00023CC5CC45401339CB2CC
:10BAD000A242F9D810BD000070B506000C4C2368D6
:10BAE0001B6E01210B489847C025AD002368DB6D14
:10BAF00000220121280098473100002001F094F92C
:10BB00002368DB6D012201212800984770BDC046E3
:10BB1000680500200103000070B504000E4D2B687D
:10BB20001B6E01210D489847C026B6002B68DB6DBF
:10BB30000022012130009847210A002001F074F909
:10BB4000E1B2002001F070F92B68DB6D01220121C8
:10BB50003000984770BDC046680500200103000012
:10BB600070B506000C4C23681B6E00210B489847EB
:10BB7000C025AD002368DB6D002201212800984715
:10BB80003100002001F050F92368DB6D0122012112
:10BB90002800984770BDC0466805002001030000DA
:10BBA00010B50C00FFF7DCFF2000FFF7B5FF10BD5C
:10BBB000F8B507000D0016001C002A20FFF7D0FF83
:10BBC000380AFFF789FFF8B2FFF786FF300AFFF760
:10BBD00083FFF0B2FFF780FF2B20FFF7C1FF280A99
:10BBE000FFF77AFFE8B2FFF777FF200AFFF774FF4D
:10BBF000E0B2FFF771FF2C20FFF7B2FFF8BDF8B5F8
:10BC000005004023FF33EF2200210020FFF7D0FF83
:10BC1000F027A026760034002800FFF77DFF013CC6
:10BC2000A4B2002CF8D1013FBFB2002FF3D1F8BD70
:10BC300030B583B000230093284A0121002001F091
:10BC400007F8274D274C2368DB6D002201212800CF
:10BC500098472368DB6D0022012123489847C020C4
:10BC60002368DB6D0122012180009847002100201C
:10BC7000FFF796FF23681B6E0021280098471420C9
:10BC8000FFF756FB23681B6E0121280098471420FC
:10BC9000FFF74EFB3620FFF763FF0020FFF71CFF86
:10BCA000B620FFF75DFF0A20FFF716FFA220FFF77F
:10BCB00013FF3A20FFF754FF0520FFF70DFF112077
:10BCC000FFF74EFF7820FFF733FB0848FFF797FF99
:10BCD0002920FFF745FF03B030BDC04670170000B4
:10BCE000020300006805002001030000FFFF0000C0
:10BCF00010B514000B000200FFF75AFF2000FFF7F9
:10BD00000BFF10BDF0B5DE4657464E464546E0B542
:10BD100085B00EAC248802940090121A90460191CE
:10BD20005B1A9B4601230393002A10DD01239A46E8
:10BD30005B46002B14DD4746D84500DA5F463B00E2
:10BD40000133994630D400260025002415E00392E3
:10BD5000002AEBD05342984601235B420393E5E768
:10BD6000DA46002BE7D05B429B4601235B429A46B2
:10BD7000E1E70134A4B24C4516DC6B46998818887B
:10BD8000029AFFF7B5FF45445E44BD4205DDED1B59
:10BD9000009B039A944663440093BE42E9DDF61B80
:10BDA000019B53440193E4E705B03CBC904699469F
:10BDB000A246AB46F0BDF0B583B000920193089F58
:10BDC0000B000F339BB202000F3292B2FFF7F0FE6E
:10BDD0003E002036012510E00198FFF79DFE01345A
:10BDE000082C07D03B7823411D42F5D00098FFF77F
:10BDF00093FEF4E70137BE4201D00024F2E703B01E
:10BE0000F0BD0000F0B5DE4657464E464546E0B56B
:10BE100087B08046059103920493109E3378002BDF
:10BE200067D000239B460B000F339BB2994636E048
:10BE30005B46D800404480B2C21D92B24B46059981
:10BE4000FFF7B6FE3578203D2D012D4BED18102360
:10BE50009A46AA44012710E00498FFF75DFE0134DA
:10BE6000082C07D02B7823411F42F5D00398FFF709
:10BE700053FEF4E70135554501D00024F2E75B4657
:10BE80000133DBB29B4605E0F02A30D05B4601333C
:10BE9000DBB29B46013662B63378002B29D072B6EE
:10BEA00033781A00203A5E2AC2D97E2BF2D97278F2
:10BEB000BD2BE9D0BA2B03D1F92AE7D1012204E046
:10BEC000C22BE3D1AB2AE1D1A93A5B46D80040446A
:10BED00080B213019B185B0002330A4A9446634404
:10BEE0000093049B039A0599FFF765FFCEE70022B4
:10BEF000EBE707B03CBC90469946A246AB46F0BD86
:10BF0000C8DD000060DD0000F0B5D64600B582B0A7
:10BF100082460D0017001E0008AB1B8800933300FB
:10BF2000FFF746FE53460193B5420ED902B004BC5A
:10BF30009246F0BD0098FFF7EFFD0134A4B2A7428E
:10BF4000F8D20135ADB2AE42F0D3019CBA45F1D979
:10BF5000F7E70000F0B5CE46474680B585B00F0044
:10BF600016001D000CAB1B7898462D4B00932B0040
:10BF70000390FFF7C9FF002400943B003200390012
:10BF80000398FFF7BFFE00942B00039802003900CE
:10BF9000FFF7B8FE00942B00320039003000FFF7A5
:10BFA000B1FE00942B0032002900039C2000FFF713
:10BFB000A9FE43465A1E93415B429BB29946013407
:10BFC000A4B20137BFB2013EB6B200933B003200CB
:10BFD00039002000FFF796FE013DADB24B460093BD
:10BFE0002B00220039002000FFF78CFE43465A4206
:10BFF00053415B429BB2984600932B0032003900BC
:10C000003000FFF77FFE434600932B0032002900EB
:10C010002000FFF777FE05B00CBC90469946F0BDB6
:10C020003084000010B5C1B2034B1A6898235B003E
:10C03000D3580220984710BD6805002010B50C00A9
:10C040001368012B05D0022B07D02368013323602E
:10C0500010BD40B253689847F7E79368187093682B
:10C0600001339360F1E7F0B5CE4600B582B007002A
:10C070001C0000230370002A21D00D6801263033F4
:10C080009946002D0BD14370012002B004BC9146AB
:10C09000F0BDBB5530000136019D002DF5D02100CB
:10C0A0002800FAF7C5FE019021002800FAF7A6FF44
:10C0B0000B0030330029ECDA4B465B1AE9E70D68D8
:10C0C0000126002D09D1302343700120DDE7BB5547
:10C0D00030000136019D002DD7D021002800FAF74D
:10C0E0001DFE019021002800FAF79EFE0B00373359
:10C0F0000929ECD8073BEAE7F8B504000D00170062
:10C100001E00884207DA320039002020FFF796FF30
:10C110000134A542F7D1F8BDF0B5DE4657464E468C
:10C120004546E0B59BB00400884617001422002164
:10C1300015A801F0DAFA4C22002102A801F0D5FA84
:10C140006568246820002900FBF738F80600FDF731
:10C1500017FC02000B0020002900FDF73DF8040049
:10C160000D00002F0BD0013F0022574BFCF7C2FD02
:10C17000013FF9D2FBF740F80090019107E0534AE4
:10C18000534BFCF7B7FDFBF737F800900191002205
:10C19000504B20002900FAF74DFF002700285DD002
:10C1A0000022494B20002900FCF7A4FD04000D00EB
:10C1B00001370022474BFAF73DFF0028F0D1002E4F
:10C1C0004ED13023424613700124631C9A462E231D
:10C1D00042461355009B019A134364D002AC0026DB
:10C1E000B94637002600009D019C01370A22002332
:10C1F00028002100FAF780FF04C60A220023280045
:10C200002100FAF779FF05000C000143EDD13E0053
:10C210004F46791E00290CD0B30002AA944663440D
:10C22000F719BF00043ABF18002204C39F42FCD193
:10C230007618002E46D0284BF3189B0002AA94468D
:10C24000634441465144101F1A6830320A70043B5F
:10C2500001319842F8D13000504429E00027AEE780
:10C2600015AB0025B9461C0000E03D006F1C0A21FB
:10C270003000FAF7D9FD02C40A213000FAF74EFD6A
:10C28000061EF2D13C1E4F469FD0A90015AB9C461E
:10C2900061444346E0180A6830321A7004390133A9
:10C2A0008342F8D191E7A01C3033424651465354A3
:10C2B0000023424613541BB03CBC90469946A2460C
:10C2C000AB46F0BD5046F3E70000244000A0D885FF
:10C2D000573476430000F03FFFFFFF3FF0B5DE46E6
:10C2E00057464E464546E0B599B001900E0093463C
:10C2F0000FAC21220021200001F0F7F93023237038
:10C3000000230E9300203056002800D101E30133B2
:10C31000039300230293C54B9846370012E0019C1B
:10C3200022000EA90D20FFF789FE22000EA90A2087
:10C33000FFF784FEBA4653465F1C012018560028BA
:10C3400000D1E6E2252807D00A28E8D0019A0EA9F4
:10C35000FFF774FEBA46EEE7002510239C46083B23
:10C36000994604260224012001E0054317007A1CA7
:10C370007B78203BD9B210290DD88B004146CB5891
:10C380009F462543F2E73543F0E74B461D43EDE773
:10C3900063461D43EAE70024230006E09C00E418FE
:10C3A00064000B00303B1B190700781C01217956F3
:10C3B0000A00303AD2B2092AF0D91C000123FB56F8
:10C3C0002E2B19D00026002303937B1C7A78682A31
:10C3D00004D06C2A25D04C2A28D03B005A1C924607
:10C3E000012018560300583BDAB2202A00D952E245
:10C3F00093008F4AD3589F46013700263300791C9B
:10C40000012038560200303AD2B2092A07D89E00DD
:10C41000F61876000300303B9B190F00EFE71E0073
:10C42000D3E70122029911430291D7E70222029930
:10C4300011430291D2E75B46043306935B461B68C7
:10C440000D930A2301220DA90FA8FFF70CFE070088
:10C450000FAB1E180D9B002B05DBAB0718D5013762
:10C460002B23994602E001372D2399462B0716D43A
:10C47000EB0728D5069B9B464B46002B00D152E18B
:10C48000019A0EA94846FFF7D9FD069B9B464AE153
:10C490006B0700D407E2013720239946E6E7019AAB
:10C4A0000EA94846FFF7CAFDBC4200DC95E1019A9F
:10C4B0000EA93020FFF7C2FD0137A742F7D12700B0
:10C4C000069B9B4666E1019B0EAA21003800FFF700
:10C4D00013FE069B9B464B46002B00D177E1019A49
:10C4E0000EA94846FFF7AAFD069B9B466FE1029BFB
:10C4F000002B23D15F4608375B461A685B680592BC
:10C500001B0E1B060493049A059B0A920B93039B34
:10C51000002B2AD108220FA90AA8FFF7FDFD06006B
:10C52000BB46002200230A980B99FAF783FD0028E6
:10C5300023D1AB072FD501362B2720E0029B013BEF
:10C54000012B09D9039B002B10D132000FA90AA897
:10C55000FFF7E2FD0600E4E75B465A689B680A9233
:10C560000B930C239C46E344ECE7BB4632000FA937
:10C570000AA8FFF7D1FD0600D3E701362D272B07C8
:10C580000FD4EB0736D5002F49D10FAB002018563A
:10C5900000281BD127E06B0700D495E10136202746
:10C5A000EDE7019A0EA93800FFF748FDB44207DD18
:10C5B000019A0EA93020FFF741FD0136A642F7D1BE
:10C5C0000FAB002018562600002809D00FAF013706
:10C5D000019A0EA9FFF732FD002038560028F6D147
:10C5E000EB0700D4A7E6019B0EAA21003000FFF75D
:10C5F00083FDA0E6019B0EAA21003000FFF77CFD21
:10C60000002F06D10FAB00201856002800D192E66B
:10C61000DCE7019A0EA93800FFF710FDF2E7019A56
